:100000000C9456000C9473000C9473000C947300C1
:100010000C9473000C9473000C9473000C94730094
:100020000C9473000C9473000C9473000C94730084
:100030000C9473000C9473000C9473000C94730074
:100040000C9473000C9473000C9473000C94730064
:100050000C9473000C9473000C9473000C94730054
:100060000C9473000C9473000C9473000C94730044
:100070000C9473000C9473000C9473000C94730034
:100080000C9473000C9473000C9473000C94730024
:100090000C9473000C9473000C9473000C94730014
:1000A0000C9473000C9473000C94730011241FBE05
:1000B000CFEFDAE0DEBFCDBF11E0A0E0B1E0ECE1D0
:1000C000F1E002C005900D92A030B107D9F711E020
:1000D000A0E0B1E001C01D92A030B107E1F70E949D
:1000E00087000C948C000C94000083E58CBD08956F
:1000F0008EBD0DB407FEFDCF089582E08093C80049
:1001000088E18093C90086E08093CA00089583E562
:0C0110008CBD0E947D00FFCFF894FFCF53
:00000001FF
