:1000000055C000006EC000006CC000006AC0000057
:1000100068C0000066C0000064C0000062C000004C
:1000200060C000005EC000005CC000005AC000005C
:1000300058C0000056C0000054C0000052C000006C
:1000400050C000004EC000004CC000004AC000007C
:1000500048C0000046C0000044C0000042C000008C
:1000600040C0000047C000007FC000003AC0000050
:1000700038C0000036C0000034C0000032C00000AC
:1000800030C000002EC000002CC000002AC00000BC
:1000900028C0000026C0000024C0000022C00000CC
:1000A00020C000001EC000001CC0000011241FBEA4
:1000B000CFEFDAE0DEBFCDBF11E0A0E0B1E0E0E5D8
:1000C000F5E002C005900D92A030B107D9F711E01C
:1000D000A0E0B1E001C01D92A333B107E1F70BD15D
:1000E00035C25DC0FC0101C041939E2F981B96173D
:1000F000D8F308951F920F920FB60F9211242F93E9
:100100003F934F935F936F937F938F939F93AF939F
:10011000BF93CF93EF93FF93C091CE00CF3F81F475
:100120008091C80087FFFCCFC091CE00CC3021F079
:10013000CB3C11F0CC3A11F480E071D18FEF58D163
:100140008C2F56D1FF91EF91CF91BF91AF919F919D
:100150008F917F916F915F914F913F912F910F9070
:100160000FBE0F901F9018951F920F920FB60F920F
:1001700011248F939F938BB190E489278BB981E6EB
:100180008093CE008FE99FE00197F1F700C0000057
:100190009F918F910F900FBE0F901F9018951F92F7
:1001A0000F920FB60F92112490E48BB189278BB96F
:1001B0002FEF31EE44E0215030404040E1F700C0E5
:1001C0000000F3CF80E025D18F3F99F481E021D169
:1001D0008C3021F081E01DD18C3A11F483E005C010
:1001E00081E017D18B3C29F482E213D191E08A3B64
:1001F00009F090E0892F0895AF92BF92CF92DF92DD
:10020000EF92FF920F931F93CF93DF938C01EB013B
:1002100089818C30F1F48A8160E0A8013ED18FE9B8
:100220009FE00197F1F700C00000C0E27801089458
:10023000E11CF11C32E0C32ED12CC00ED11EF8946B
:10024000C801B701A60121E0F9D07894C150B9F7EF
:1002500047C08B3C01F58FE99FE00197F1F700C0A3
:100260000000229690E2F92E68010894C11CD11C6E
:1002700022E0A22EB12CA00EB11EF894899160E06C
:10028000A8010BD1C801B601A50121E0D7D078940F
:10029000FA9499F725C081E0BCD08C3AF9F48FE943
:1002A0009FE00197F1F700C00000C7E078010894D3
:1002B000E11CF11C82E0C82ED12CC00ED11EF89496
:1002C0008C2F60E0A801E9D0C801B701A60121E0A8
:1002D000B5D07894C95FC73E91F702C081E099D04C
:1002E000DF91CF911F910F91FF90EF90DF90CF9012
:1002F000BF90AF900895CF93DF93CDB7DEB7CC5CBE
:10030000D0400FB6F894DEBF0FBECDBF80E880931B
:1003100061001092610080E48AB984D057D08FEFD9
:1003200093ECA9E081509040A040E1F700C00000AC
:100330005E9ACE0188599F4F60E240E0D3DECE0145
:10034000C69660E240E0CEDECE01049660E240E078
:10035000C9DE80E064D08FEF4BD08BEC49D007E052
:10036000802F46D0095F073ED9F78AEB41D07894B9
:100370008FEF93ECA9E081509040A040E1F700C0DE
:10038000000040E4F42E1EDF8823E9F38BB18F25B3
:100390008BB98E0106561F4F90E0892FC453DF4F53
:1003A0009883CC5CD04035D0D8018D938D01C45357
:1003B000DF4F9881CC5CD0409F5F923371F7CE01C4
:1003C0000196BE0166567F4F17DFDDCF539A5298D4
:1003D00082E08093C80088E98093C90086E080931A
:1003E000CA0082E290E09093CD008093CC00089503
:1003F00090910001923310F0109200019091000151
:10040000E92FF0E0EF5FFE4F80839F5F9093000144
:100410000895E1E0F1E0E80FF11D808108958093F7
:100420000001089584B1876084B9239881E58CBD6B
:1004300008958EBD0DB407FEFDCF0895AF92BF9213
:10044000CF92DF92EF92FF921F93CF93DF930F92A1
:10045000CDB7DEB7182F7B016A01A82EB92E0EC0CA
:10046000F50181915F012983E4DFF70181917F012B
:10047000E0DFF60181916F01DCDF29818A2D811B8C
:10048000821770F30F90DF91CF911F91FF90EF9043
:10049000DF90CF90BF90AF900895FA011082118243
:1004A0001282843228F497E0899F902D1124908342
:1004B000982F9452943240F49FEF908397E0899F55
:1004C000902D11249C5F9183982F9854943240F47E
:1004D0009FEF918399EF899F902D112499509083DC
:1004E000982F9C56943240F49FEF918397E0899F18
:1004F000902D1124945F9283982F9059943240F458
:100500009FEF928399EF899F902D112491519183B0
:10051000982F945B943240F49FEF928397E0899FE9
:10052000902D11249C5E9083982F985D943248F40E
:100530009FEF908399EF899F802D112489518283A9
:1005400008958C3F10F08FEF80830895F894FFCFCB
:00000001FF
