:1000000055C000006EC000006CC000006AC0000057
:1000100068C0000066C0000064C0000062C000004C
:1000200060C000005EC000005CC000005AC000005C
:1000300058C0000056C0000054C0000052C000006C
:1000400050C00000D9C000004CC000004AC00000F1
:1000500048C0000046C0000044C0000042C000008C
:1000600040C000006FC0000099C000003AC000000E
:1000700038C0000036C0000034C0000032C00000AC
:1000800030C000002EC000002CC000002AC00000BC
:1000900028C0000026C0000024C0000022C00000CC
:1000A00020C000001EC000001CC0000011241FBEA4
:1000B000CFEFDAE0DEBFCDBF11E0A0E0B1E0E4E1D8
:1000C000F8E002C005900D92A030B107D9F711E019
:1000D000A0E0B1E001C01D92A735B107E1F756D20B
:1000E00097C377C0FC0101C041939E2F981B9617C0
:1000F000D8F30895109280008CE08093810082E014
:1001000080936F00109285001092840080E69AEE32
:1001100090938900809388000895362F2AE0622FFB
:100120006BD3880F880F809304019295907F9093F2
:100130000501832F61D380930601990F990F909346
:10014000070108951F920F920FB60F9211242F935B
:100150003F934F935F936F937F938F939F93AF934F
:10016000BF93CF93EF93FF93C091CE00CF3F11F495
:1001700080E0ABD28C2F92D2FF91EF91CF91BF91C3
:10018000AF919F918F917F916F915F914F913F912F
:100190002F910F900FBE0F901F9018951F920F92E6
:1001A0000FB60F9211248F939F938BB190E4892700
:1001B0008BB981E68093CE008FE99FE00197F1F73C
:1001C00000C000009F918F910F900FBE0F901F9065
:1001D00018951F920F920FB60F92112490E48BB1D5
:1001E00089278BB92FEF31EE44E021503040404059
:1001F000E1F700C00000F3CF1F920F920FB60F92ED
:1002000011248F939F938BB190E489278BB98091B0
:100210001201809580931201809113018095809343
:10022000130180910A018F5F80930A018C33A8F03B
:1002300010920A01809109018F5F809309018C332C
:1002400060F010920901809108018F5F809308018E
:100250008D3018F081E08093080110928500109293
:1002600084009F918F910F900FBE0F901F90189553
:1002700080E025D28F3FD9F481E021D28C3061F02B
:1002800081E01DD28C3A41F081E019D28E3E21F0FE
:1002900081E015D28A3A11F483E005C081E00FD2E3
:1002A0008B3C29F482E20BD291E08A3B09F090E08A
:1002B000892F0895AF92BF92CF92DF92EF92FF9273
:1002C0000F931F93CF93DF930F92CDB7DEB78C01BF
:1002D000FB0181818C30E9F4828160E0A80133D296
:1002E0008FE39FE10197F1F700C0000070E2A72EB5
:1002F00078010894E11CF11CA2E0CA2ED12CC00E9A
:10030000D11EC801B701A60121E0EED1AA94C9F718
:1003100031C18B3C31F58FE99FE00197F1F700C0C7
:10032000000052E0A52EB12CA60EB71E30E07801D9
:100330000894E11CF11C62E0C62ED12CC00ED11E27
:10034000F50181915F0160E0A8013983FCD1C8010A
:10035000B701A60121E0C8D139813F5F303281F772
:1003600009C181E0ACD18C3AF9F48FE99FE00197A3
:10037000F1F700C0000037E078010894E11CF11C9F
:1003800042E0C42ED12CC00ED11E832F60E0A80104
:100390003983D9D1C801B701A60121E0A5D139819E
:1003A000395F373E91F7E6C081E089D18E3E09F092
:1003B000E1C080910001882359F48BE0809308010B
:1003C00083E18093090110920A0188EC8093000177
:1003D0008FEFF801808311828091080160910901FB
:1003E0009CDE8FE99FE00197F1F700C0000037E045
:1003F000E32EF12C68010894C11CD11C80910401EA
:1004000090E00E2C02C0959587950A94E2F780FF44
:1004100002C0C80101C0C601B601A60121E064D135
:100420000894E108F10891E0E916F10439F78FEF3B
:1004300056D18FEF54D18FEF52D180E050D180E070
:100440004ED180E04CD127E0E22EF12C68010894D7
:10045000C11CD11C8091050190E00E2C02C0959525
:1004600087950A94E2F780FF03C0C601B80102C075
:10047000C601B601A60121E037D10894E108F108D0
:10048000E3E0EE16F10431F78FEF29D18FEF27D19A
:100490008FEF25D180E023D180E021D180E01FD1F2
:1004A000809112011CD180E01AD180E018D1809196
:1004B000120115D180E013D180E011D196E0E92E30
:1004C000F12C68010894C11CD11C8091060190E0B8
:1004D0000E2C02C0959587950A94E2F780FF04C020
:1004E000C601B601A80103C0C601B601A60121E0FC
:1004F000FBD00894E108F108FFEFEF16FFEFFF06CD
:1005000021F78FEFECD08FEFEAD08FEFE8D080E0CB
:10051000E6D080E0E4D080E0E2D086E0E82EF12C66
:1005200068010894C11CD11C8091070190E00E2C39
:1005300002C0959587950A94E2F780FF03C0C80131
:10054000B80102C0C601B601A60121E0CDD00894D1
:10055000E108F10881E0E816F10431F78FEFBFD030
:100560008FEFBDD08FEFBBD080E0B9D080E0B7D0A7
:1005700080E0B5D00F90DF91CF911F910F91FF9048
:10058000EF90DF90CF90BF90AF900895CF93DF931F
:10059000CDB7DEB7CC5CD0400FB6F894DEBF0FBE4F
:1005A000CDBF80E8809361001092610080E48AB939
:1005B0008FD065D09FDD8FEF93ECA9E08150904004
:1005C000A040E1F700C00000CE0188599F4F60E2D3
:1005D00040E088DDCE01C69660E240E083DDCE01DA
:1005E000049660E240E07EDD80E06FD08FEF56D071
:1005F0008CE054D007E0802F51D0095F073ED9F737
:100600008AEB4CD078948FEF93ECA9E08150904026
:10061000A040E1F700C00000E4E0F1E080E21192C8
:100620008150E9F78CE0809308018BE08093090109
:1006300010920A01B0E4FB2E1BDE8823E9F38BB194
:100640008F258BB98E0106561F4F90E0892FC4531A
:10065000DF4F9883CC5CD04032D0D8018D938D0190
:10066000C453DF4F9881CC5CD0409F5F9A3071F7C4
:10067000CE010196BE0166567F4F1CDEDDCF539A38
:10068000529888E98093C90086E08093CA0080E18F
:1006900090E09093CD008093CC000895909101015B
:1006A000923310F01092010190910101E92FF0E0D6
:1006B000EB5DFE4F80839F5F909301010895E5E21B
:1006C000F1E0E80FF11D8081089580930101089504
:1006D00084B1876084B9239881E58CBD08958EBD6F
:1006E0000DB407FEFDCF0895AF92BF92CF92DF9277
:1006F000EF92FF921F93CF93DF930F92CDB7DEB7A8
:10070000182F7B016A01A82EB92E0EC0F501819128
:100710005F012983E4DFF70181917F01E0DFF601CA
:1007200081916F01DCDF29818A2D811B821770F393
:100730000F90DF91CF911F91FF90EF90DF90CF90BE
:10074000BF90AF900895FA01108211821282843214
:1007500028F497E0899F902D11249083982F94522C
:10076000943240F49FEF908397E0899F902D11245D
:100770009C5F9183982F9854943240F49FEF91831B
:1007800099EF899F902D112499509083982F9C5612
:10079000943240F49FEF918397E0899F902D11242C
:1007A000945F9283982F9059943240F49FEF9283F4
:1007B00099EF899F902D112491519183982F945BEB
:1007C000943240F49FEF928397E0899F902D1124FB
:1007D0009C5E9083982F985D943248F49FEF9083AD
:1007E00099EF899F802D11248951828308958C3F30
:1007F00010F08FEF80830895991B79E004C0991F52
:10080000961708F0961B881F7A95C9F7809508956A
:04081000F894FFCF8A
:00000001FF
