:1000000055C0000063C0000061C000005FC0000078
:100010005DC000005BC0000059C0000057C0000078
:1000200055C0000053C0000051C000004FC0000088
:100030004DC000004BC0000049C0000047C0000098
:1000400045C0000043C0000041C000003FC00000A8
:100050003DC000003BC0000039C0000037C00000B8
:1000600035C000003CC0000031C000002FC00000BF
:100070002DC000002BC0000029C0000027C00000D8
:1000800025C0000023C0000021C000001FC00000E8
:100090001DC000001BC0000019C0000017C00000F8
:1000A00015C0000013C0000011C0000011241FBEC5
:1000B000CFEFDAE0DEBFCDBF21E0A0E0B1E001C0CC
:1000C0001D92A030B207E1F727D032C112C0FC0167
:1000D00001C041939E2F981B9617D8F308951F9245
:1000E0000F920FB60F9211240F900FBE0F901F901A
:1000F00018951F920F920FB60F92112490E48BB1B6
:1001000089278BB92FEF33EC89E0215030408040B4
:10011000E1F700C00000F3CFCF93DF93CDB7DEB798
:10012000C959D1090FB6F894DEBF0FBECDBF80E824
:10013000809361001092610080E48AB965D052D04A
:100140002FEF83EC99E0215080409040E1F700C010
:1001500000007E0125E6E20EF11C40E060E2C701EE
:10016000B6DF6E0183E3C80ED11C40E060E2C60139
:10017000AEDF40E060E28E010F5F1F4FC801A7DFD6
:10018000B12C80E4A82E8FE19EE40197F1F700C026
:10019000000020E230E0A601B801C70141D02BB138
:1001A0002A252BB9AE0149565F4F60E08B2D67D0F1
:1001B000C956DF4F4881C759D04060E2C70187DF89
:1001C000C856DF4F4881C859D04060E2C8017FDF80
:1001D000C756DF4F4881C959D04060E2C60177DF7A
:1001E000B394D1CF539A529882E08093C80088E1AB
:1001F0008093C90086E08093CA0082E290E09093E9
:10020000CD008093CC00089584B1876084B9239891
:1002100083E58CBD08958EBD0DB407FEFDCF089516
:10022000AF92BF92DF92EF92FF920F931F93CF9303
:10023000DF931F92CDB7DEB7D82E8B017A01A82E9F
:10024000B92E0EC0F50181915F012983E4DFF80129
:1002500081918F01E0DFF70181917F01DCDF29814E
:100260008A2D8D19821770F30F90DF91CF911F9116
:100270000F91FF90EF90DF90BF90AF900895FA013B
:10028000108211821282843228F497E0899F902D87
:1002900011249083982F9452943240F49FEF9083CE
:1002A00097E0899F902D11249C5F9183982F9854FB
:1002B000943240F49FEF918399EF899F902D112400
:1002C00099509083982F9C56943240F49FEF9183DD
:1002D00097E0899F902D1124945F9283982F9059D5
:1002E000943240F49FEF928399EF899F902D1124CF
:1002F00091519183982F945B943240F49FEF9283B5
:1003000097E0899F902D11249C5E9083982F985D93
:10031000943248F49FEF908399EF899F802D1124A8
:100320008951828308958C3F10F08FEF8083089568
:04033000F894FFCF6F
:00000001FF
