:1000000055C000006EC000006CC000006AC0000057
:1000100068C0000066C0000064C0000062C000004C
:1000200060C000005EC000005CC000005AC000005C
:1000300058C0000056C0000054C0000052C000006C
:1000400050C000004EC000004CC000004AC000007C
:1000500048C0000046C0000044C0000042C000008C
:1000600040C0000047C000007AC000003AC0000055
:1000700038C0000036C0000034C0000032C00000AC
:1000800030C000002EC000002CC000002AC00000BC
:1000900028C0000026C0000024C0000022C00000CC
:1000A00020C000001EC000001CC0000011241FBEA4
:1000B000CFEFDAE0DEBFCDBF11E0A0E0B1E0EEEAC5
:1000C000F4E002C005900D92A030B107D9F711E01D
:1000D000A0E0B1E001C01D92A333B107E1F7D5D094
:1000E000E4C158C0FC0101C041939E2F981B961794
:1000F000D8F308951F920F920FB60F9211242F93E9
:100100003F934F935F936F937F938F939F93AF939F
:10011000BF93CF93EF93FF93C091CE00CC3B11F0F0
:10012000CB3C49F428D1815020D18B3A21F480E096
:1001300025D18BEA09D18C2F07D1FF91EF91CF9177
:10014000BF91AF919F918F917F916F915F914F91EF
:100150003F912F910F900FBE0F901F9018951F92F7
:100160000F920FB60F9211248F939F938BB190E44F
:1001700089278BB981E68093CE008FE99FE00197B4
:10018000F1F700C000009F918F910F900FBE0F906C
:100190001F9018951F920F920FB60F92112490E4A2
:1001A0008BB189278BB92FEF31EE44E021503040DD
:1001B0004040E1F700C00000F3CF80E0D6D08B3A9A
:1001C00079F481E0D2D08C3B11F483E005C081E06A
:1001D000CCD08B3C29F482E2C8D091E08A3B09F074
:1001E00090E0892F0895CF92DF92EF92FF921F93B4
:1001F000CF93DF93EC0181E0B8D08C3BE9F482E04F
:10020000B4D060E0AE01F8D08FE99FE00197F1F73C
:1002100000C0000010E27E010894E11CF11C92E095
:10022000C92ED12CCC0EDD1ECE01B701A60121E0D6
:10023000B4D01150C9F721C081E097D08B3CE9F4CC
:100240008FE99FE00197F1F700C0000012E07E0106
:100250000894E11CF11C82E0C82ED12CCC0EDD1ECE
:10026000812F83D060E0AE01C7D0CE01B701A601D7
:1002700021E093D01F5F123299F7DF91CF911F9148
:10028000FF90EF90DF90CF900895CF93DF93CDB79D
:10029000DEB7C959D0400FB6F894DEBF0FBECDBF50
:1002A00080E8809361001092610080E48AB969D08F
:1002B00039D08FEF93ECA9E081509040A040E1F756
:1002C00000C000005E9ACE0188599F4F60E240E076
:1002D00009DFCE01C69660E240E004DFCE0104965D
:1002E00060E240E0FFDE80E049D08BEA2DD08BEC6D
:1002F0002BD017E0812F28D0195F173ED9F78AEB52
:1003000023D078948FEF93ECA9E081509040A040E7
:10031000E1F700C0000051DF8823E9F3CE01019628
:1003200062DFF9CF539A529882E08093C80088E93F
:100330008093C90086E08093CA0082E290E09093A7
:10034000CD008093CC00089590910001923310F07D
:100350001092000190910001E92FF0E0EF5FFE4F55
:1003600080839F5F909300010895E1E0F1E0E80F42
:10037000F11D80810895809100010895809300010E
:10038000089584B1876084B9239881E58CBD089570
:100390008EBD0DB407FEFDCF0895AF92BF92CF92F0
:1003A000DF92EF92FF921F93CF93DF930F92CDB71F
:1003B000DEB7182F7B016A01A82EB92E0EC0F501F9
:1003C00081915F012983E4DFF70181917F01E0DF03
:1003D000F60181916F01DCDF29818A2D811B821753
:1003E00070F30F90DF91CF911F91FF90EF90DF900E
:1003F000CF90BF90AF900895FA01108211821282BF
:10040000843228F497E0899F902D11249083982FAF
:100410009452943240F49FEF908397E0899F902DFF
:1004200011249C5F9183982F9854943240F49FEF4D
:10043000918399EF899F902D112499509083982F43
:100440009C56943240F49FEF918397E0899F902DC2
:100450001124945F9283982F9059943240F49FEF27
:10046000928399EF899F902D112491519183982F18
:10047000945B943240F49FEF928397E0899F902D94
:1004800011249C5E9083982F985D943248F49FEFDE
:10049000908399EF899F802D11248951828308953B
:0E04A0008C3F10F08FEF80830895F894FFCF0B
:00000001FF
