:1000000055C000006EC000006CC000006AC0000057
:1000100068C0000066C0000064C0000062C000004C
:1000200060C000005EC000005CC000005AC000005C
:1000300058C0000056C0000054C0000052C000006C
:1000400050C00000DFC000004CC000004AC00000EB
:1000500048C0000046C0000044C0000042C000008C
:1000600040C0000075C000009FC000003AC0000002
:1000700038C0000036C0000034C0000032C00000AC
:1000800030C000002EC000002CC000002AC00000BC
:10009000EDC3000026C0000024C0000022C0000004
:1000A00020C000001EC000001CC0000011241FBEA4
:1000B000CFEFDAE0DEBFCDBF11E0A0E0B1E0EAEBC8
:1000C000F9E002C005900D92A030B107D9F711E018
:1000D000A0E0B1E001C01D92A636B107E1F793D2CE
:1000E0006AC47DC0109280008CE08093810082E021
:1000F00080936F00109285001092840080E69AEE43
:100100009093890080938800089580910601209142
:100110000501982F9071990F990F90930F0190E01E
:1001200034E0880F991F3A95E1F780931001822FF0
:1001300082958F7080931101822F8F70880F880FA6
:1001400080931201089580ED64E071E048E022C4DC
:100150001F920F920FB60F9211242F933F934F933C
:100160005F936F937F938F939F93AF93BF93CF933F
:10017000EF93FF93C091CE00CF3F11F480E0DFD228
:100180008C2FC5D2FF91EF91CF91BF91AF919F91ED
:100190008F917F916F915F914F913F912F910F9030
:1001A0000FBE0F901F9018951F920F920FB60F92CF
:1001B00011248F939F938BB190E489278BB981E6AB
:1001C0008093CE008FE99FE00197F1F700C0000017
:1001D0009F918F910F900FBE0F901F9018951F92B7
:1001E0000F920FB60F92112490E48BB189278BB92F
:1001F0002FEF31EE44E0215030404040E1F700C0A5
:100200000000F3CF1F920F920FB60F9211242F937D
:100210003F934F935F936F937F938F939F93AF938E
:10022000BF93EF93FF938BB190E489278BB98091B3
:100230001D01809580931D0180911E018095809302
:100240001E01809115018F5F809315018C3388F01A
:1002500010921501809114018F5F8093140180E04A
:100260006ED28FEF54D28DEA52D28EE150D28AEB09
:100270004ED21092850010928400FF91EF91BF91B1
:10028000AF919F918F917F916F915F914F913F912E
:100290002F910F900FBE0F901F90189580E049D2BC
:1002A0008F3FF9F481E045D28C3081F081E041D27A
:1002B0008C3A61F081E03DD28E3E41F081E039D24E
:1002C0008A3A21F081E035D28D3A11F483E005C0FD
:1002D00081E02FD28B3C29F482E22BD291E08A3B41
:1002E00009F090E0892F0895AF92BF92CF92DF92EC
:1002F000EF92FF920F931F93CF93DF930F92CDB79F
:10030000DEB78C01FB0181818C30E9F4828160E0F1
:10031000A80153D28FE39FE10197F1F700C00000DD
:1003200080E2A82E78010894E11CF11C92E0C92E0D
:10033000D12CC00ED11EC801B701A60121E00ED2FA
:10034000AA94C9F754C18B3C31F5AFE9BFE01197CE
:10035000F1F700C00000A2E0AA2EB12CA60EB71E35
:1003600030E078010894E11CF11CB2E0CB2ED12CD6
:10037000C00ED11EF50181915F0160E0A8013983B3
:100380001CD2C801B701A60121E0E8D139813F5F45
:10039000303281F72CC18C3AF9F48FE99FE0019754
:1003A000F1F700C0000037E078010894E11CF11C6F
:1003B000E2E0CE2ED12CC00ED11E832F60E0A8012A
:1003C0003983FBD1C801B701A60121E0C7D139812A
:1003D000395F373E91F70BC18E3E09F0E3C0809143
:1003E0000001882359F48BE08093130183E180930B
:1003F00014011092150188EC809300018FEFD80151
:100400008C9311961C9280911301609114017DDEF2
:10041000EFE9FFE03197F1F700C0000077E0E72E49
:10042000F12C68010894C11CD11C80910F0190E04F
:100430000E2C02C0959587950A94E2F780FF02C0C2
:10044000C80101C0C601B601A60121E087D1089408
:10045000E108F108F1E0EF16F10439F78FEF79D1F7
:100460008FEF77D18FEF75D180E073D180E071D1BC
:1004700080E06FD167E0E62EF12C68010894C11C82
:10048000D11C8091100190E00E2C02C095958795AB
:100490000A94E2F780FF03C0C601B80102C0C6019A
:1004A000B601A60121E05AD10894E108F10883E0E1
:1004B000E816F10431F78FEF4CD18FEF4AD18FEF6F
:1004C00048D180E046D180E044D180E042D18091A3
:1004D0001D013FD180E03DD180E03BD180911D01E5
:1004E00038D180E036D180E034D156E0E52EF12CD1
:1004F00068010894C11CD11C8091110190E00E2C60
:1005000002C0959587950A94E2F780FF04C0C60162
:10051000B601A80103C0C601B601A60121E01ED1A3
:100520000894E108F1089FEFE9169FEFF90621F71B
:100530008FEF0FD18FEF0DD18FEF0BD180E009D16D
:1005400080E007D180E005D146E0E42EF12C68017F
:100550000894C11CD11C8091120190E00E2C02C0A5
:10056000959587950A94E2F780FF03C0C801B8010A
:1005700002C0C601B601A60121E0F0D00894E1084E
:10058000F108A1E0EA16F10431F78FEFE2D08FEF26
:10059000E0D08FEFDED080E0DCD080E0DAD080E009
:1005A000D8D025C08D3A19F580ED63E071E041E0C7
:1005B000E0D1EFE3FFE13197F1F700C00000C3DDC8
:1005C00084E091E068E086D08FEF93ECA9E0815061
:1005D0009040A040E1F700C0000080E0B0D08FEF75
:1005E00096D08EEE94D08EE192D08AEB90D00F9080
:1005F000DF91CF911F910F91FF90EF90DF90CF90FF
:10060000BF90AF900895CF93DF93CDB7DEB7E69755
:100610000FB6F894DEBF0FBECDBF80E880936100B7
:100620001092610080E48AB98DD03ED05BDD98D114
:100630008FEF93ECA9E081509040A040E1F700C01B
:1006400000005E9A80E07BD08FEF61D08BEC5FD0B2
:1006500007E0802F5CD0095F073ED9F78AEB57D0BF
:1006600078948CE0809313018BE08093140120E454
:10067000F22E14DE8823E9F38BB18F258BB98E011E
:100680000C5F1F4F90E0892F9EAB53D0D8018D9304
:100690008D019EA99F5F9A30B1F7CE010196BE01F0
:1006A0006C5F7F4F21DEE5CF539A529888E98093A3
:1006B000C90086E08093CA0080E190E09093CD006D
:1006C0008093CC0008959091C80095FFFCCF809353
:1006D000CE000895EF92FF921F93CF93DF930F9276
:1006E000CDB7DEB7182FE82EF92E06C0F70181919D
:1006F0007F016983E8DF69818E2D811B8617B0F346
:100700000F90DF91CF911F91FF90EF9008959091FE
:100710000101923310F010920101E0910101F0E02B
:10072000E05DFE4F8083809101018F5F8093010126
:100730000895E0E3F1E0E80FF11D808108958093D2
:100740000101089584B1876084B9239881E58CBD47
:1007500008958EBD0DB407FEFDCF0895AF92BF92F0
:10076000CF92DF92EF92FF921F93CF93DF930F927E
:10077000CDB7DEB7182F7B016A01A82EB92E0EC0A7
:10078000F50181915F012983E4DFF70181917F0108
:10079000E0DFF60181916F01DCDF29818A2D811B69
:1007A000821770F30F90DF91CF911F91FF90EF9020
:1007B000DF90CF90BF90AF900895FA011082118220
:1007C0001282843228F497E0899F902D112490831F
:1007D000982F9452943240F49FEF908397E0899F32
:1007E000902D11249C5F9183982F9854943240F45B
:1007F0009FEF918399EF899F902D112499509083B9
:10080000982F9C56943240F49FEF918397E0899FF4
:10081000902D1124945F9283982F9059943240F434
:100820009FEF928399EF899F902D1124915191838D
:10083000982F945B943240F49FEF928397E0899FC6
:10084000902D11249C5E9083982F985D943248F4EB
:100850009FEF908399EF899F802D11248951828386
:1008600008958C3F10F08FEF808308951F920F92B0
:100870000FB60F9211242F933F938F939F93EF9373
:10088000FF938091B9008832F9F0893240F48031C9
:10089000A1F08831C9F0883009F054C00EC080340E
:1008A000A1F1813420F4883309F04CC049C080356F
:1008B000F1F0883509F046C036C08091620180931E
:1008C000BB00109202012DC0809102019091650140
:1008D0008917A0F5E0916301F0916401E80FF11D23
:1008E00090819093BB008F5F809302011AC080912A
:1008F0000201E0916301F0916401E80FF11D909114
:10090000BB0090838F5F80930201809165012091ED
:10091000020130E090E001972817390714F485ECC4
:1009200012C085E810C080910201E0916301F0914E
:100930006401E80FF11D8091BB00808384E903C04E
:1009400085EA01C084E08093BC00FF91EF919F9104
:100950008F913F912F910F900FBE0F901F90189580
:100960008FEF8093BB001092B9008CE08093B800A9
:1009700008959091BC0090FDFCCF8E7F8093620122
:1009800070936401609363014093650185EA8093ED
:10099000BC0008959091BC0090FDFCCF81608093D5
:1009A000620170936401609363014093650185EA7D
:0A09B0008093BC000895F894FFCF77
:00000001FF
