:100000000C9456000C9473000C9473000C947300C1
:100010000C9473000C9473000C9473000C94730094
:100020000C9473000C9473000C9473000C94730084
:100030000C9473000C9473000C9473000C94730074
:100040000C9473000C9473000C9473000C94730064
:100050000C9473000C9473000C9473000C94730054
:100060000C9473000C9496000C9473000C94730021
:100070000C9473000C9473000C9473000C94730034
:100080000C9473000C9473000C9473000C94730024
:100090000C9473000C9473000C9473000C94730014
:1000A0000C9473000C9473000C94730011241FBE05
:1000B000CFEFDAE0DEBFCDBF11E0A0E0B1E0ECEBC6
:1000C000F1E002C005900D92A030B107D9F711E020
:1000D000A0E0B1E001C01D92A333B107E1F70E9497
:1000E000CF000C94DC000C94A00080E48AB9089541
:1000F00084B1876084B9239883E58CBD08958EBD53
:100100000DB407FEFDCF0895539A529882E0809374
:10011000C80088E18093C90086E08093CA008CE023
:1001200090E09093CD008093CC0008951F920F92A1
:100130000FB60F9211240F900FBE0F901F901895BD
:100140001F920F920FB60F92112490E48BB1892762
:100150008BB9EFE4F3EC3197F1F700C00000F6CF74
:1001600090910001923310F01092000190910001E3
:10017000E92FF0E0EF5FFE4F80839F5F90930001D7
:10018000089580910001E1E0F1E0E80FF11D808128
:100190000895E1E0F1E0E80FF11D8081089580E825
:1001A0008093610082E08093610080E48AB90E94BC
:0C01B00078000E948400FFCFF894FFCF7D
:00000001FF
