:1000000055C000006EC000006CC000006AC0000057
:1000100068C0000066C0000064C0000062C000004C
:1000200060C000005EC000005CC000005AC000005C
:1000300058C0000056C0000054C0000052C000006C
:1000400050C00000D2C000004CC000004AC00000F8
:1000500048C0000046C0000044C0000042C000008C
:1000600040C0000068C0000092C000003AC000001C
:1000700038C0000036C0000034C0000032C00000AC
:1000800030C000002EC000002CC000002AC00000BC
:1000900070C1000026C0000024C0000022C0000083
:1000A00020C000001EC000001CC0000011241FBEA4
:1000B000CFEFDAE0DEBFCDBF11E0A0E0B1E0E0ECD1
:1000C000F4E002C005900D92A030B107D9F711E01D
:1000D000A0E0B1E001C01D92A536B107E1F7C1D0A3
:1000E000EDC170C0109280008CE08093810082E0AE
:1000F00080936F00109285001092840080E69AEE43
:1001000090938900809388000895CF93DF9300D067
:10011000CDB7DEB7198280EDBE016F5F7F4F41E042
:10012000ABD180ED62E071E048E0B7D10F900F9065
:10013000DF91CF9108951F920F920FB60F92112465
:100140002F933F934F935F936F937F938F939F93DF
:10015000AF93BF93CF93EF93FF93C091CE00CF3F68
:1001600011F480E0FCD08C2FE8D0FF91EF91CF917B
:10017000BF91AF919F918F917F916F915F914F91BF
:100180003F912F910F900FBE0F901F9018951F92C7
:100190000F920FB60F9211248F939F938BB190E41F
:1001A00089278BB981E68093CE008FE99FE0019784
:1001B000F1F700C000009F918F910F900FBE0F903C
:1001C0001F9018951F920F920FB60F92112490E472
:1001D0008BB189278BB92FEF31EE44E021503040AD
:1001E0004040E1F700C00000F3CF1F920F920FB61E
:1001F0000F9211248F939F938BB190E489278BB931
:1002000080911C01809580931C0180911D01809537
:1002100080931D01809114018F5F809314018C33B2
:10022000A8F010921401809113018F5F8093130145
:100230008C3360F010921301809112018F5F8093D4
:1002400012018D3018F081E0809312011092850028
:10025000109284009F918F910F900FBE0F901F906E
:10026000189580E8809361001092610080E48AB95B
:1002700079D030D037DFF7D08FEF93ECA9E0815001
:100280009040A040E1F700C000005E9A80E067D097
:100290008FEF53D08BEC51D0C7E08C2F4ED0C95F7D
:1002A000C73ED9F78AEB49D078948CE0809312014D
:1002B0008BE08093130129DF82E091E068E020D099
:1002C0008FEF93ECA9E081509040A040E1F700C08F
:1002D0000000F1CF539A529888E98093C90086E0D4
:1002E0008093CA0080E190E09093CD008093CC0091
:1002F00008959091C80095FFFCCF8093CE0008959B
:10030000EF92FF921F93CF93DF930F92CDB7DEB79B
:10031000182FE82EF92E06C0F70181917F0169831D
:10032000E8DF69818E2D811B8617B0F30F90DF9176
:10033000CF911F91FF90EF9008959091000192331B
:1003400010F010920001E0910001F0E0E15DFE4F3D
:100350008083809100018F5F8093000108958093D6
:100360000001089584B1876084B9239881E58CBD2C
:1003700008951F920F920FB60F9211242F933F935F
:100380008F939F93EF93FF938091B9008832F9F098
:10039000893240F48031A1F08831C9F0883009F009
:1003A00054C00EC08034A1F1813420F4883309F0A8
:1003B0004CC049C08035F1F0883509F046C036C0E0
:1003C000809161018093BB00109201012DC080914A
:1003D0000101909164018917A0F5E0916201F0910B
:1003E0006301E80FF11D90819093BB008F5F8093B4
:1003F00001011AC080910101E0916201F091630155
:10040000E80FF11D9091BB0090838F5F80930101F5
:10041000809164012091010130E090E0019728175C
:10042000390714F485EC12C085E810C080910101F1
:10043000E0916201F0916301E80FF11D8091BB0032
:10044000808384E903C085EA01C084E08093BC0016
:10045000FF91EF919F918F913F912F910F900FBE40
:100460000F901F9018958FEF8093BB001092B900EA
:100470008CE08093B80008959091BC0090FDFCCF73
:100480008E7F80936101709363016093620140935A
:10049000640185EA8093BC0008959091BC0090FDB2
:1004A000FCCF81608093610170936301609362016E
:1004B0004093640185EA8093BC000895F894FFCFCF
:00000001FF
