:10000000FDC0000016C1000014C1000012C10000B4
:1000100010C100000EC100000CC100000AC10000A8
:1000200008C1000006C1000004C1000002C10000B8
:1000300000C10000FEC00000FCC00000FAC00000CB
:10004000F8C00000F6C00000F4C00000F2C00000DC
:10005000F0C00000EEC00000ECC00000EAC00000EC
:10006000E8C00000E6C00000E4C00000E2C00000FC
:10007000E0C00000DEC00000DCC00000DAC000000C
:10008000D8C00000D6C00000D4C00000D2C000001C
:10009000D0C00000CEC00000CCC00000CAC000002C
:1000A000C8C00000C6C00000C4C00000C2C000003C
:1000B000C0C00000BEC00000BCC00000BAC000004C
:1000C000B8C00000B6C00000B4C00000B2C000005C
:1000D000B0C00000AEC00000ACC00000AAC000006C
:1000E000A8C00000A6C00000A4C00000A2C000007C
:1000F000A0C000009EC000009CC000009AC000008C
:1001000098C0000096C0000094C0000092C000009B
:1001100090C000008EC000008CC000008AC00000AB
:1001200088C0000086C0000084C0000082C00000BB
:1001300080C000007EC000007CC000007AC00000CB
:1001400078C0000076C0000074C0000072C00000DB
:1001500070C000006EC000006CC000006AC00000EB
:1001600068C0000066C0000064C0000062C00000FB
:1001700060C000005EC000005CC000005AC000000B
:1001800058C0000056C0000054C0000052C000001B
:1001900050C000004EC000004CC000004AC000002B
:1001A00048C0000046C0000044C0000042C000003B
:1001B00040C000003EC000003CC000003AC000004B
:1001C00038C0000036C0000034C0000032C000005B
:1001D00030C000002EC000002CC000002AC000006B
:1001E00028C0000026C0000024C0000022C000007B
:1001F00020C000001EC000001CC0000011241FBE53
:10020000CFEFDFE2DEBFCDBF10E2A0E0B0E2EAEA6E
:10021000F4E002C005900D92A030B107D9F710E2CA
:10022000A0E0B0E201C01D92A030B107E1F774D0A8
:100230003AC1E6CE8DE0E0E8F6E0818385E0E0E2D9
:10024000F6E081838FE0E0E6F6E0818383E0E0E0A2
:10025000F6E082830895EF92FF921F93CF93DF938E
:100260007C01EB01FCD0182F90E09C01207F3070C6
:100270002115310521F185FF04C08CE0898383E2DB
:1002800005C017FF05C08CE089838CE68A830AC00D
:1002900084FF04C08CE0898384EBF8CF86FF02C022
:1002A0008CEA8983CE0164E070E0A9D08FEF99EFEA
:1002B000A0E081509040A040E1F700C00000137022
:1002C000D70111961C9311979C9193709330D9F498
:1002D000812F90E08230910539F48A818E5F8A8384
:1002E0008D3F68F08CEF09C08130910561F48A81FF
:1002F00082508A83882319F481E08A8307C0CE0163
:1003000064E070E07CD0F70181818083DF91CF9140
:100310001F91FF90EF900895CF93DF93CDB7DEB795
:10032000E497CDBFDEBFB0D08FEF97E8A3E1815057
:100330009040A040E1F700C000007CDF7CD085D079
:1003400046D08FEF97E8A3E181509040A040E1F7BD
:1003500000C000008FEF97E8A3E181509040A040DB
:10036000E1F700C000008FEF8B831C821D828AEBB7
:100370008E838FEF3DD0AFEBBDE51197F1F700C055
:1003800000008BEC35D08FEB9DE50197F1F700C0B5
:10039000000016E0812F2CD0AFEBBDE51197F1F7EF
:1003A00000C000001A5F163CA9F78AEB21D08FEF3E
:1003B00093EDA0E381509040A040E1F700C0000021
:1003C000CE010196BE016D5F7F4F45DFF9CFE0E4BE
:1003D000F6E088E0818384E08283E0EAF8E088E167
:1003E000848383E0858387E3868384EB8783089512
:1003F0009091A10895FFFCCF8093A0080895EF92FB
:10040000FF920F931F93CF93DF937C0100E010E0E6
:10041000C62FD0E006C0F70181917F01E9DF0F5FB1
:100420001F4F0C171D07BCF3DF91CF911F910F9148
:10043000FF90EF900895E0E4F6E080EB818380E4A4
:10044000828382ED8093C0080895E0E6F6E080EBB9
:10045000818380E4828382ED8093C0090895E0E87F
:10046000F6E084E08683858388E08683E0ECF8E02C
:1004700013828091C20887FFFCCF8091C3089CE063
:10048000E0E8F6E09583089588ED84BF82E08093EC
:1004900050008091510081FFFCCF88ED84BF81E046
:0A04A000809340000895F894FFCF08
:00000001FF
