:100000000C94FE000C941B010C941B010C941B011E
:100010000C941B010C941B010C941B010C941B01F0
:100020000C941B010C941B010C941B010C941B01E0
:100030000C941B010C941B010C941B010C941B01D0
:100040000C941B010C941B010C941B010C941B01C0
:100050000C941B010C941B010C941B010C941B01B0
:100060000C941B010C941B010C941B010C941B01A0
:100070000C941B010C941B010C941B010C941B0190
:100080000C941B010C941B010C941B010C941B0180
:100090000C941B010C941B010C941B010C941B0170
:1000A0000C941B010C941B010C941B010C941B0160
:1000B0000C941B010C941B010C941B010C941B0150
:1000C0000C941B010C941B010C941B010C941B0140
:1000D0000C941B010C941B010C941B010C941B0130
:1000E0000C941B010C941B010C941B010C941B0120
:1000F0000C941B010C941B010C941B010C941B0110
:100100000C941B010C941B010C941B010C941B01FF
:100110000C941B010C941B010C941B010C941B01EF
:100120000C941B010C941B010C941B010C941B01DF
:100130000C941B010C941B010C941B010C941B01CF
:100140000C941B010C941B010C941B010C941B01BF
:100150000C941B010C941B010C941B010C941B01AF
:100160000C941B010C941B010C941B010C941B019F
:100170000C941B010C941B010C941B010C941B018F
:100180000C941B010C941B010C941B010C941B017F
:100190000C941B010C941B010C941B010C941B016F
:1001A0000C941B010C941B010C941B010C941B015F
:1001B0000C941B010C941B010C941B010C941B014F
:1001C0000C941B010C941B010C941B010C941B013F
:1001D0000C941B010C941B010C941B010C941B012F
:1001E0000C941B010C941B010C941B010C941B011F
:1001F0000C941B010C941B010C941B0111241FBEB9
:10020000CFEFDFE2DEBFCDBF10E2A0E0B0E2E6EF6D
:10021000F2E002C005900D92A030B107D9F710E2CC
:10022000A0E0B0E201C01D92A030B107E1F70E944A
:100230006C010C9479010C94000088ED84BF82E07D
:10024000809350008091510081FFFCCF88ED84BFE6
:1002500081E08093400008958DE0E0E8F6E081833E
:1002600085E0E0E2F6E081838FE0E0E6F6E081837E
:1002700083E0E0E0F6E082830895E0E4F6E080EBDE
:10028000818380E4828382ED8093C0080895E0E654
:10029000F6E080EB818380E4828382ED8093C00965
:1002A0000895E0E4F6E088E0818384E08283E0EA78
:1002B000F8E088E1848383E0858387E3868384EBA9
:1002C000878308950895E0E0FAE085E0808383E184
:1002D00081830895089508950E941D010E942C01B4
:1002E0000E943D010E9447010E9451010E9463014A
:0602F000FFCFF894FFCFE0
:00000001FF
