:10000000FDC0000016C1000014C1000012C10000B4
:1000100010C100000EC100000CC100000AC10000A8
:1000200008C1000006C1000004C1000002C10000B8
:1000300000C10000FEC00000FCC00000FAC00000CB
:10004000F8C00000F6C00000F4C00000F2C00000DC
:10005000F0C00000EEC00000ECC00000EAC00000EC
:10006000E8C00000E6C00000E4C00000E2C00000FC
:10007000E0C00000DEC00000DCC00000DAC000000C
:10008000D8C00000D6C00000D4C00000D2C000001C
:10009000D0C00000CEC00000CCC00000CAC000002C
:1000A000C8C00000C6C00000C4C00000C2C000003C
:1000B000C0C00000BEC00000BCC00000BAC000004C
:1000C000B8C00000B6C00000B4C00000B2C000005C
:1000D000B0C00000AEC00000ACC00000AAC000006C
:1000E000A8C00000A6C00000A4C00000A2C000007C
:1000F000A0C000009EC000009CC000009AC000008C
:1001000098C0000096C0000094C0000092C000009B
:1001100090C000008EC000008CC000008AC00000AB
:1001200088C0000086C0000084C0000082C00000BB
:1001300080C000007EC000007CC000007AC00000CB
:1001400078C0000076C0000074C0000072C00000DB
:1001500070C000006EC000006CC000006AC00000EB
:1001600068C0000066C0000064C0000062C00000FB
:1001700060C000005EC000005CC000005AC000000B
:1001800058C0000056C0000054C0000052C000001B
:1001900050C000004EC000004CC000004AC000002B
:1001A00048C0000046C0000044C0000042C000003B
:1001B00040C000003EC000003CC000003AC000004B
:1001C00038C0000036C0000034C0000032C000005B
:1001D00030C000002EC000002CC000002AC000006B
:1001E00028C0000026C0000024C0000022C000007B
:1001F00020C000001EC000001CC0000011241FBE53
:10020000CFEFDFE2DEBFCDBF10E2A0E0B0E2E6E27A
:10021000F5E002C005900D92A030B107D9F710E2C9
:10022000A0E0B0E201C01D92AE33B107E1F7CED03D
:1002300078C1E6CE8DE0E0E8F6E0818385E0E0E29B
:10024000F6E081838FE0E0E6F6E0818383E0E0E0A2
:10025000F6E082830895807F80930B20882309F441
:1002600040C085FF05C08CE080930D208EE106C064
:1002700087FF07C08CE080930D208CE680930E20D2
:1002800023C084FF05C08CE080930D2084EBF6CF63
:1002900086FF1AC080910D208C3A11F48EEE01C0B9
:1002A0008CEA80930D208AE080930E208CE090E20F
:1002B00064E0E3D08FEF93EDA0E381509040A04045
:1002C000E1F700C0000008958CE090E264E0D5D032
:1002D0008FEF99EFA0E081509040A040E1F700C07F
:1002E000000080910B2080930A20AFE3BFE11197BB
:1002F000F1F700C0000080910D200895CF93C82F22
:1003000083708093012020910020821719F191E0E1
:1003100092278917E9F4982F9150923050F48FE08A
:10032000E0E0F0E2828382E5A1D080910E208E5F32
:100330000CC0882311F0833059F480EF80930220A1
:100340008CE494D080910E20825080930E2002C0C5
:10035000109202208091012080930020C695C695BE
:10036000C370C093042090910320C91711F181E05C
:100370008927C817E1F48C2F8150823048F48FE030
:100380008093052082E572D080910E208E5F0CC094
:10039000CC2311F0C33059F480EF809305208CE416
:1003A00065D080910E20825080930E2002C0109262
:1003B000052080910420809303208FE39FE1019723
:1003C000F1F700C0000081E0CF9108959BD08FEF3E
:1003D00097E8A3E181509040A040E1F700C0000001
:1003E00029DF67D070D031D08FEF97E8A3E181503B
:1003F0009040A040E1F700C000008FEF97E8A3E134
:1004000081509040A040E1F700C000008FEF809342
:100410000C208CE080930D2010920E208AEB8093AC
:100420000F205BD0C82F17DF8C2F68DF90910E2034
:10043000809110209817A9F38CE090E264E01DD021
:1004400080910E2080931020ECCFE0E4F6E088E06D
:10045000818384E08283E0EAF8E088E1848383E0BA
:10046000858387E3868384EB878308959091A10831
:1004700095FFFCCF8093A0080895EF92FF920F9311
:100480001F93CF93DF937C0100E010E0C62FD0E0F4
:1004900006C0F70181917F01E9DF0F5F1F4F0C1745
:1004A0001D07BCF3DF91CF911F910F91FF90EF904B
:1004B0000895E0E4F6E080EB818380E4828382EDBE
:1004C0008093C0080895E0E6F6E080EB818380E445
:1004D000828382ED8093C0090895E0E8F6E084E02D
:1004E0008683858388E08683E0ECF8E01382809140
:1004F000C20887FFFCCF8091C3089CE0E0E8F6E0EB
:100500009583089588ED84BF82E0809350008091A8
:10051000510081FFFCCF88ED84BF81E080934000D3
:060520000895F894FFCFDE
:00000001FF
