:10000000FDC0000016C1000014C1000012C10000B4
:1000100010C100000EC100000CC100000AC10000A8
:1000200008C1000006C1000004C1000002C10000B8
:1000300000C10000FEC00000FCC00000FAC00000CB
:10004000F8C00000F6C00000F4C00000F2C00000DC
:10005000F0C00000EEC00000ECC00000EAC00000EC
:10006000E8C00000E6C00000E4C00000E2C00000FC
:10007000E0C00000DEC00000DCC00000DAC000000C
:10008000D8C00000D6C00000D4C00000D2C000001C
:10009000D0C00000CEC00000CCC00000CAC000002C
:1000A000C8C00000C6C00000C4C00000C2C000003C
:1000B000C0C00000BEC00000BCC00000BAC000004C
:1000C000B8C00000B6C00000B4C00000B2C000005C
:1000D000B0C00000AEC00000ACC00000AAC000006C
:1000E000A8C00000A6C00000A4C00000A2C000007C
:1000F000A0C000009EC000009CC000009AC000008C
:1001000098C0000096C0000094C0000092C000009B
:1001100090C000008EC000008CC000008AC00000AB
:1001200088C0000086C0000084C0000082C00000BB
:1001300080C000007EC000007CC000007AC00000CB
:1001400078C0000076C0000074C0000072C00000DB
:1001500070C000006EC000006CC000006AC00000EB
:1001600068C0000066C0000064C0000062C00000FB
:1001700060C000005EC000005CC000005AC000000B
:1001800058C0000056C0000054C0000052C000001B
:1001900050C000004EC000004CC000004AC000002B
:1001A00048C0000046C0000044C0000042C000003B
:1001B00040C000003EC000003CC000003AC000004B
:1001C00038C0000036C0000034C0000032C000005B
:1001D00030C000002EC000002CC000002AC000006B
:1001E00028C0000026C0000024C0000022C000007B
:1001F00020C000001EC000001CC0000011241FBE53
:10020000CFEFDFE2DEBFCDBF10E2A0E0B0E2E0E280
:10021000F6E002C005900D92A030B107D9F710E2C8
:10022000A0E0B0E201C01D92AE33B107E1F7B1D05A
:10023000F5C1E6CE8DE0E0E8F6E0818385E0E0E21E
:10024000F6E081838FE0E0E6F6E0818383E0E0E0A2
:10025000F6E08283089580930D209FEF90930C2009
:100260008B3C21F09AEBECE0F0E293830895807FE1
:1002700080930B208823B1F185FF04C08CE0EBDF75
:100280008EE117C087FF04C08CE0E5DF8CE611C06B
:1002900084FF04C08CE0DFDF84EB0BC086FF0BC063
:1002A00080910D208C3A11F48EEE01C08CEAD3DFE0
:1002B0008AE080930E208CE090E264E0BBD08091D5
:1002C0000B2080930A208FE39FE10197F1F700C094
:1002D000000080D1807FE9F78FE39FE10197F1F77C
:1002E00000C0000080910D200895982F9370909386
:1002F0000120309100209317F9F021E02327921775
:10030000C9F4292F2150223040F42FE0E0E0F0E240
:10031000228320910E202E5F0AC0992311F0933082
:1003200049F420EF2093022020910E2022502093A8
:100330000E2002C010920220909300208695869590
:10034000837080930420209103208217F1F091E0C4
:1003500092278917C1F4982F9150923038F49FE07A
:100360009093052090910E209E5F0AC0882311F083
:10037000833049F490EF9093052090910E20925095
:1003800090930E2002C0109205208093032081E0FC
:10039000089535D18FEF97E8A3E181509040A040B8
:1003A000E1F700C0000046DF61D06AD02BD082D0D8
:1003B0008FEF97E8A3E181509040A040E1F700C0A3
:1003C00000008FEF30D08DEA2ED080E02CD08AEB69
:1003D0002AD088E0E0E6F6E08583C6D0FBD0C82FBF
:1003E00046DF8C2F82DF90910E208091102098178D
:1003F000A9F38CE090E264E01DD080910E20809300
:100400001020ECCFE0E4F6E088E0818384E0828392
:10041000E0EAF8E088E1848383E0858387E38683EC
:1004200084EB878308959091A10895FFFCCF80937A
:10043000A0080895EF92FF920F931F93CF93DF933D
:100440007C0100E010E0C62FD0E006C0F7018191EA
:100450007F01E9DF0F5F1F4F0C171D07BCF3DF9112
:10046000CF911F910F91FF90EF900895E0E4F6E097
:1004700080EB818380E4828382ED8093C0080895BD
:10048000E0E6F6E080EB818380E4828383E580937D
:10049000C009089591E0E0E6F6E09683E0ECF9E02B
:1004A00083838091C20987FFFCCF81E0E0E6F6E01C
:1004B00085830895E0E6F6E08FE18183A0E0B6E071
:1004C00080E111968C93119798E09583858315961A
:1004D0008C9382E0858384E086838FE39CE9019797
:1004E000F1F700C0000082EAD5DF92E09A95F1F7BB
:1004F00000C080EACFDF82E08A95F1F700C088EC87
:10050000C9DF92E09A95F1F700C084EAC3DF82E088
:100510008A95F1F700C080E4BDDF92E09A95F1F78B
:1005200000C085E2B7DF82E08A95F1F700C081E87C
:10053000B1DF92E09A95F1F700C080E1ABDF82E095
:100540008A95F1F700C08FE2A5DF92E09A95F1F766
:1005500000C08FEA9FDF82E08A95F1F700C092E049
:100560009A95F1F700C00895EF92FF920F931F93B1
:10057000CF93DF9310E0C0E6D6E084E0E82E94E06D
:10058000F92EFE82812F806B85DF82E08A95F1F75C
:1005900000C080E17FDF82E08A95F1F700C080E053
:1005A00079DF82E08A95F1F700C0ED8200E08FEFFD
:1005B00071DF82E08A95F1F700C00F5F0038B9F76C
:1005C0001F5F1830F1F6DF91CF911F910F91FF90CF
:1005D000EF900895E0E8F6E084E08683858388E084
:1005E0008683E0ECF8E013828091C20887FFFCCF9D
:1005F0008091C3089CE0E0E8F6E09583089588EDDB
:1006000084BF82E0809350008091510081FFFCCF35
:1006100088ED84BF81E0809340000895F894FFCF77
:00000001FF
