:100000000C94FE000C9410010C9410010C9410013F
:100010000C9410010C9410010C9410010C9410011C
:100020000C9410010C9410010C9410010C9410010C
:100030000C9410010C9410010C9410010C941001FC
:100040000C9410010C9410010C9410010C941001EC
:100050000C9410010C9410010C9410010C941001DC
:100060000C9410010C9410010C9410010C941001CC
:100070000C9410010C9410010C9410010C941001BC
:100080000C9410010C9410010C9410010C941001AC
:100090000C9410010C9410010C9410010C9410019C
:1000A0000C9410010C9410010C9410010C9410018C
:1000B0000C9410010C9410010C9410010C9410017C
:1000C0000C9410010C9410010C9410010C9410016C
:1000D0000C9410010C9410010C9410010C9410015C
:1000E0000C9410010C9410010C9410010C9410014C
:1000F0000C9410010C9410010C9410010C9410013C
:100100000C9410010C9410010C9410010C9410012B
:100110000C9410010C9410010C9410010C9410011B
:100120000C9410010C9410010C9410010C9410010B
:100130000C9410010C9410010C9410010C941001FB
:100140000C9410010C9410010C9410010C941001EB
:100150000C9410010C9410010C9410010C941001DB
:100160000C9410010C9410010C9410010C941001CB
:100170000C9410010C9410010C9410010C941001BB
:100180000C9410010C9410010C9410010C941001AB
:100190000C9410010C9410010C9410010C9410019B
:1001A0000C9410010C9410010C9410010C9410018B
:1001B0000C9410010C9410010C9410010C9410017B
:1001C0000C9410010C9410010C9410010C9410016B
:1001D0000C9410010C9410010C9410010C9410015B
:1001E0000C9410010C9410010C9410010C9410014B
:1001F0000C9410010C9410010C94100111241FBEDA
:10020000CFEFDFE2DEBFCDBF20E2A0E0B0E201C071
:100210001D92A433B207E1F70E9478010C949E016D
:100220000C94000088ED84BF82E0809350008091A0
:10023000510081FFFCCF88ED84BF81E080934000B6
:1002400008958DE0E0E8F6E0818385E0E0E2F6E005
:1002500081838FE0E0E6F6E0818383E0E0E0F6E092
:1002600082830895E0E4F6E080EB818380E482837A
:1002700082ED8093C0080895E0E6F6E080EB81838C
:1002800080E4828382ED8093C0090895E0E4F6E083
:1002900088E0818384E08283E0EAF8E088E1848377
:1002A00083E0858385EF86838CEC878308950895AA
:1002B000E0E0FAE085E0808383E18183089508959A
:1002C0000895860F911DFC0180810895860F911D70
:1002D000FC0140830895FC018081882331F0FB01FB
:1002E00090818917E1F381E0089580E008950895F1
:1002F0000E9412012FEF8FE493EC21508040904038
:10030000E1F700C000000E9421010E9432010E941A
:100310003C010E9446012FEF8FE493EC2150804076
:100320009040E1F700C000002FEF8FE493EC2150E4
:1003300080409040E1F700C00000FFCFF894FFCF6D
:00000001FF
